:100000000C9463000C948B000C948B000C94320BBA
:100010000C948B000C94540B0C948B000C947E0A63
:100020000C948B000C948B000C948B000C948B0024
:100030000C948B000C948B000C948B000C948B0014
:100040000C94340A0C948B000C94000B0C94DA0A78
:100050000C948B000C948B000C948B000C948B00F4
:100060000C948B000C948B000000000024002700EF
:100070002A000000000023002600290000000008DC
:10008000000201000003040700000000000000005F
:10009000010204081020408001020408102001021F
:1000A0000408102000000000250028002B00040494
:1000B0000404040404040202020202020303030310
:1000C000030302008B0B11241FBECFEFD8E0DEBF6D
:1000D000CDBF12E0A0E0B1E0EAE6F0E202C0059098
:1000E0000D92AC32B107D9F724E0ACE2B2E001C026
:1000F0001D92A831B207E1F710E0C3E6D0E004C0DA
:100100002197FE010E941310C236D107C9F70E9441
:10011000F50B0C9433100C940000F894DA99DA9AE9
:100120008CE080936D00809168008460809368000B
:1001300078940895E8E6F0E080818B7F8083DA9AF6
:100140000895833081F028F4813099F08230A9F04D
:1001500008958730A9F08830C9F08430B1F48091D7
:1001600080008F7D03C0809180008F778093800016
:10017000089584B58F7784BD089584B58F7DFBCFB6
:100180008091B0008F778093B00008958091B00087
:100190008F7DF9CFCF93DF93282F30E0F901E4581A
:1001A000FF4F8491F901E057FF4FD491F901E255D7
:1001B000FF4FC491CC23A1F081110E94A100EC2F2C
:1001C000F0E0EE0FFF1FEE58FF4FA591B491EC91B8
:1001D000ED2381E090E009F480E0DF91CF91089574
:1001E00080E090E0FACF1F93CF93DF93282F30E089
:1001F000F901E458FF4F8491F901E057FF4FD49182
:10020000F901E255FF4FC491CC23A9F0162F8111BB
:100210000E94A100EC2FF0E0EE0FFF1FEC55FF4F06
:10022000A591B4918FB7F894EC91111108C0D095B5
:10023000DE23DC938FBFDF91CF911F910895DE2BDA
:10024000F8CFCF93DF9390E0FC01E057FF4F24916C
:1002500082559F4FFC0184918823D1F090E0880F54
:10026000991FFC01E859FF4FA591B491FC01EC5591
:10027000FF4FC591D491623071F49FB7F8943C91CF
:10028000822F809583238C93E8812E2B28839FBF18
:10029000DF91CF9108958FB7F894EC912E2B2C938A
:1002A0008FBFF6CF8F929F92AF92BF92CF92DF9285
:1002B000EF92FF92CF936C0180911D01833169F021
:1002C0008F3F09F470C0CF91FF90EF90DF90CF90F7
:1002D000BF90AF909F908F900895E2ECF0E0C491B2
:1002E000C7FDF1CF61E083E10E942101CC2319F029
:1002F000C23009F022C1F12CE12C60E072E18AE702
:1003000090E0A70196010E94F40F49015A01DA0119
:10031000C9010197A109B1098F3F9105A105B10557
:1003200009F00CF4EEC060E472E48FE090E0A70105
:1003300096010E94F40F2150310941095109C23040
:1003400009F0A0C082E02F3F31054105510509F0B9
:100350000CF488C160E970ED83E090E0A70196019C
:100360000E94F40F215031094109510983E02F3FC8
:1003700031054105510509F00CF474C168E478EECB
:1003800081E090E0A70196010E94F40F215031090D
:10039000410951092F3F31054105510511F00CF07C
:1003A0008FC084E05FC183E180931D01E2ECF0E047
:1003B000C491CF3F09F487CFC13021F150F0C23052
:1003C00009F43EC0C7FD7FCF61E083E10E942101B7
:1003D0008FCF14BC15BC84B5826084BD85B58160A7
:1003E00085BDE1ECF0E0E491F0E0EE0FFF1FEC558D
:1003F000FF4F85919491E3EAF0E0E491E0934502A8
:10040000C0E070CF10928000109281008091810036
:100410008860809381008091810081608093810059
:10042000E1ECF0E0E491F0E0EE0FFF1FEC55FF4F40
:1004300085919491E3EAF0E0E491E093440252CF95
:100440001092B0001092B1008091B0008260809351
:10045000B0008091B10081608093B100E1ECF0E0E8
:10046000E491F0E0EE0FFF1FEC55FF4F8591949162
:100470009093430280934202E3EAF0E0E491E09338
:10048000410230CF2F3F31054105510509F00CF4F1
:1004900052C068E478EE81E090E0A70196010E94E6
:1004A000F40F2150310941095109CC2309F4AFC09F
:1004B0002F3F31054105510511F00CF0B0C071CF4F
:1004C00064E274EF80E090E0A70196010E94F40FCF
:1004D000215031094109510985E02F3F310541057E
:1004E000510509F008F4BEC062E17AE780E090E0CF
:1004F000A70196010E94F40F2150310941095109C9
:100500009CC09C0181E0C111ADC095B5987F892B3D
:1005100085BD27BD8FEF9FEFDC0180934E02909346
:100520004F02A0935002B093510280916E008260FE
:1005300080936E00C8CE82E0E6CFF12CE12C60E023
:1005400072E18AE790E0A70196010E94F40F215022
:1005500031094109510991E02115310581E0480730
:1005600051056CF068E478EE81E090E0A701960117
:100570000E94F40F215031094109510993E0C13023
:1005800009F076C080918100887F892B809381005B
:1005900030938900209388008FEF9FEFDC018093D8
:1005A0004A0290934B02A0934C02B0934D0280916B
:1005B0006F00826080936F0086CE2093B3008FEF30
:1005C0009FEFDC018093460290934702A09348027C
:1005D000B09349028091700082608093700073CE66
:1005E00084E02F3F31054105510509F008F48DCF16
:1005F0009AE0B594A794979487949A95D1F7A5011A
:100600009401215031094109510985E07ECF83E0F1
:100610002F3F31054105510509F00CF476CF62E119
:100620007AE780E090E0A70196010E94F40F215044
:10063000310941095109CC2399F286E02F3F310558
:100640004105510579F070F08AE0B594A79497942C
:1006500087948A95D1F7A501940121503109410968
:10066000510987E09091B100987F892B8093B10068
:10067000C13009F48DCFC23009F49FCFC11123CE10
:1006800048CF3FB7F8948091390290913A02A091F7
:100690003B02B0913C0226B5A89B05C02F3F19F044
:1006A0000196A11DB11D3FBFBA2FA92F982F8827F2
:1006B000BC01CD01620F711D811D911D42E0660FCD
:1006C000771F881F991F4A95D1F708958F929F929F
:1006D000AF92BF92CF92DF92EF92FF924B015C01FB
:1006E0000E9441036B017C010E9441036C197D094A
:1006F0008E099F09683E734081059105A8F321E0AA
:10070000821A9108A108B10888EEC80E83E0D81EAD
:10071000E11CF11C81149104A104B10429F7FF909C
:10072000EF90DF90CF90BF90AF909F908F90089503
:100730002FB7F8946091350270913602809137029C
:10074000909138022FBF0895CF939091260198176A
:1007500099F08093260190912101992369F0C82F87
:100760000E9498037093250160932401CC2331F0FB
:100770007093230160932201CF9108951092230179
:1007800010922201F9CF0F931F930E94980320919A
:100790002701213039F470932301609322011F91C6
:1007A0000F910895209126012130C9F72091200151
:1007B0002111F5CF2091220130912301621B730B8F
:1007C0008109910900910B0410910C0430E020E0A4
:1007D000601771078207930710F380E01F910F9154
:1007E0000C94A40390911D0189130BC0E2ECF0E07E
:1007F000E4919FEF90931D01E13049F028F0E23041
:1008000061F060E00C94F30010926E00FACF9091CA
:100810006F009D7F90936F00F4CF909170009D7F4B
:100820009093700091E09093B0009091B100987F08
:1008300094609093B1001092B300E3CFCF93C82F90
:10084000809127018C17B1F1C0932701C11108C015
:1008500083E10E94F2036C2F80E1CF910C94F300AE
:10086000809107049091080420914002222321F0F6
:100870008091090490910A0420911C01222319F00F
:1008800080E098E0C0E020912801211101C0C0E083
:100890000E945201CC23F9F280911404811106C008
:1008A0009091FF038091FE039817A9F281E00E94C6
:1008B000A403D1CFCF910895AF92BF92CF92DF9290
:1008C000EF92FF920F931F93CF93DF936C017B0105
:1008D0008B01040F151FEB015E01AE18BF08C01796
:1008E000D10759F06991D601ED91FC910190F08109
:1008F000E02DC6010995892B79F7C501DF91CF91CC
:100900001F910F91FF90EF90DF90CF90BF90AF902D
:100910000895FC01538D448D252F30E0842F90E005
:10092000821B930B541710F0CF96089501970895EA
:10093000FC01918D828D981761F0A28DAE0FBF2FB3
:10094000B11D5D968C91928D9F5F9F73928F90E009
:1009500008958FEF9FEF0895FC01918D828D981778
:1009600031F0828DE80FF11D858D90E008958FEFB5
:100970009FEF0895FC01918D228D892F90E0805C7E
:100980009F4F821B91098F739927089582E592E00A
:100990000E94BA0421E0892B09F420E0822F0895F7
:1009A00080E090E0892B29F00E94C60481110C940C
:1009B00000000895FC01A48DA80FB92FB11DA35A02
:1009C000BF4F2C91848D90E001968F739927848F6F
:1009D000A689B7892C93A089B1898C918370806492
:1009E0008C93938D848D981306C00288F389E02D33
:1009F00080818F7D80830895EF92FF920F931F93E4
:100A0000CF93DF93EC0181E0888F9B8D8C8D9813C1
:100A10001AC0E889F989808185FF15C09FB7F894CD
:100A2000EE89FF896083E889F98980818370806419
:100A300080839FBF81E090E0DF91CF911F910F9164
:100A4000FF90EF900895F62E0B8D10E00F5F1F4F73
:100A50000F731127E02E8C8D8E110CC00FB607FC82
:100A6000FACFE889F989808185FFF5CFCE010E9410
:100A7000DA04F1CFEB8DEC0FFD2FF11DE35AFF4FA0
:100A8000F0829FB7F8940B8FEA89FB89808180629E
:100A9000CFCFCF939091FA02911102C0882341F1F8
:100AA0009091FF038091FE03981304C08091FD0292
:100AB00060E8811160EA80912601880F90912701FA
:100AC000892B28E0829FC0011124682B80910104AA
:100AD000811184E0C0911E01CF77682B82E592E0FE
:100AE0000E94FC046C2F82E592E0CF910C94FC04F0
:100AF000CF910895CF93DF93EC01888D8823B9F0CF
:100B0000AA89BB89E889F9898C9185FD03C0808118
:100B100086FD0DC00FB607FCF7CF8C9185FFF2CF95
:100B2000808185FFEDCFCE010E94DA04E9CFDF910D
:100B3000CF910895CF93DF93EC0162E08AE00E94A9
:100B4000210162E08BE00E94210184E080936B0030
:100B5000E8E6F0E08081816080831F821E82DF9161
:100B6000CF910895FC0187818823F9F08091680076
:100B70008E7F80936800968181E0911101C080E0B2
:100B800085838281890F8283168217828091680013
:100B900081608093680083819281981708F4828332
:100BA00084819281891708F4828308952091120428
:100BB00030E02817390708F49C018091130490E075
:100BC0002817390708F4C90120911E0130911F012F
:100BD00090931F0180931E012817390719F080E0B8
:100BE0000C9449050895CF93DF93D82F82E00E949B
:100BF000CA00C82F83E00E94CA0090913F02992347
:100C000011F181E0809301046AE070E080E090E0FF
:100C10000E94660382E00E94CA00019761F483E0AB
:100C20000E94CA00019739F410923F0280E0DF91E0
:100C3000CF910C9449051092FE031092FF03DF91AF
:100C4000CF910C949A0090911604992329F091E089
:100C5000D13019F492E001C09D2FCC0F8C0F892365
:100C600059F5C091290180910004D82BD09300043C
:100C700081E08093010410922901809124019091D8
:100C80002501892B31F00E94980370932501609310
:100C9000240180913D0290913E02009759F02091ED
:100CA0001E0130911F018217930720F490931F01BA
:100CB00080931E01C111BACFDF91CF9108958F9219
:100CC0009F92AF92BF92CF92DF92EF92FF926C0110
:100CD0007B010E9498034B015C012CE02C9DC0011C
:100CE0002D9D900D1124B7010E94AA0F6B01F12CCC
:100CF000E12C0E949803681979098A099B092091BF
:100D000011046C157D058E059F0510F5213411F039
:100D100020E00BC082E00E94CA00892BC9F783E063
:100D20000E94CA0021E0892B99F7209302040E94B7
:100D3000C30380912A01813039F0823019F082E0BA
:100D40000E94F30581E001C082E00E94F305D1CF4B
:100D50002134A1F480910204882381F082E00E9472
:100D6000CA00892B59F083E00E94CA00892B31F018
:100D7000109200041092020410920104FF90EF9070
:100D8000DF90CF90BF90AF909F908F9008950F937A
:100D90001F93CF93DF93C0911504662309F44EC0CF
:100DA00090910501911103C091E09093050181306C
:100DB00069F480932A01D0E0CC0FDD1F80910501FA
:100DC000880F8093050108EC10E011C082E0809349
:100DD0002A0186E0C89FE0011124662331F080914A
:100DE0000501880F81608093050100E911E081E031
:100DF0000E941E0460911E0170911F01CE010E948D
:100E00005F0680E00E941E0460911E0170911F0128
:100E1000C8018C1B9D0B0E945F0610922A010E9444
:100E200098036093060170930701809308019093E3
:100E30000901DF91CF911F910F910895813031F613
:100E400080932A01D0E0CC0FDD1FBDCF809111042B
:100E5000813499F480910204882379F082E00E9421
:100E6000CA00892B51F083E00E94CA00892B29F027
:100E7000109202041092000408958091000480FFF3
:100E800009C0809100048E7F8093000461E081E0BE
:100E90000E94C7068091000481FF09C08091000470
:100EA0008D7F8093000461E082E00C94C706089572
:100EB0001F93CF93DF93E0EEE80FEB3508F044C0CB
:100EC000813608F4E82FE052F0E0E55DFE4F108136
:100ED0001123D1F181E080934002C0910301D0E061
:100EE000103841F560911E0170911F01209104019D
:100EF00030E02C1B3D0B2250310984E6482F429FE5
:100F0000C001439F900D11240E945F0660911E0155
:100F100070911F01219784E6282F2C9FC0012D9FDF
:100F2000900D11240E945F0610924002DF91CF9134
:100F30001F91089581E017FD82E060E00E94C706DE
:100F4000110F1038B9F7E2CF60911E0170911F01A7
:100F500082E390E0DF91CF911F910C945F06CF93D5
:100F6000DF93EC018991882319F00E945807FACF8A
:100F7000DF91CF910895CF93DF9383E10E94F20335
:100F8000F894C0E2D1E0188280E00E94A4031986A0
:100F900080E00E941E041092FE031092FF030E9444
:100FA0009A00E0E0F4E01082128211820E948D002B
:100FB00080911E0190911F01909302018093010185
:100FC0007894DF91CF910895FC0101900020E9F71A
:100FD0003197AF01481B590BBC0182E592E00C949C
:100FE0005C048F929F92AF92BF920F931F93CF9307
:100FF000DF93CDB7DEB7A1970FB6F894DEBF0FBE73
:10100000CDBF19A2423008F44AE08E010F5D1F4F98
:10101000842E912CB12CA12CA50194010E94D20FF9
:10102000E62FB901CA01EA30F4F4E05DD801EE938D
:101030008D01232B242B252B79F790E080E010974E
:1010400019F0CD010E94E407A1960FB6F894DEBF17
:101050000FBECDBFDF91CF911F910F91BF90AF9089
:101060009F908F900895E95CE1CFCF93DF93D0E01C
:10107000C0E0009719F00E94E407EC0185E891E0D8
:101080000E94E4078C0F9D1FDF91CF9108950F936D
:101090001F93CF93DF9381508F3108F078C0C62F14
:1010A000E82FF0E0EA5AF74F0C94131075088C08FB
:1010B000B008E208EB08F408FA08FD081A09230949
:1010C0002F093B09C708DC08500957096A09590963
:1010D000D609DD09E609EF09F509C7080D0AC708B1
:1010E000C708C708C708C708FC091092FE0310927A
:1010F000FF0381E00E94490581E0C11101C080E049
:1011000080932001CC2309F442C081E0DF91CF918C
:101110001F910F910C94A4031092FE031092FF03F1
:1011200081E0623009F080E080932001C23019F440
:1011300081E00E94A40381E0C11101C080E080939E
:101140002901CC2309F48CC181E00E941E04109275
:10115000010480E0DF91CF911F910F910C9449051C
:101160006F3F59F41092F4028091F10290E0DF9108
:10117000CF911F910F910C94D60561110DC08091F4
:1011800001019091020190931F0180931E01DF9154
:10119000CF911F910F910895862F90E0442349F03D
:1011A00020911E0130911F01309302012093010113
:1011B000DECF0E94D605CDCFDF91CF911F910F9149
:1011C0000C94BB0785E0689FE0011124D0930E04C6
:1011D000C0930D04DCCFE5E06E9FE0011124D093B5
:1011E0000C04C0930B04D3CFD0E0D0931004C09371
:1011F0000F04CDCF60931504CACF862F81708093E2
:101200002101811102C01092260181E09C2F927071
:10121000C1FF80E080932801911106C01092270140
:1012200060E080E10E94F300C2FB662760F96093F2
:101230000001ADCF0E94BB0781E0C11101C080E079
:1012400080931404A4CF6B3008F4A1CFFAE06F9F11
:10125000E0011124D0930A04C093090498CF6B30A5
:1012600008F495CF8AE0689FE0011124D093080428
:10127000C09307048CCF611109C08091110481349F
:1012800009F485CF81E48093110481CF613009F0A6
:101290007ECF80911104823409F479CF82E4F3CFB8
:1012A000F0E0E0E0DF91CF911F910F91099481E090
:1012B00051CF8EEE92E00E94520161E270E080E038
:1012C00090E00E94660383E1DF91CF911F910F911F
:1012D0000C94F2036230B1F0613121F188E891E0C1
:1012E0006130D1F088EE91E00E94E40780E192E065
:1012F0000E94E4078BEA91E0DF91CF911F910F915B
:101300000C94E40781E991E00E94E40785EA91E00A
:101310000E94E4078BEA91E0DF91CF911F910F913A
:101320000C9435088DEA91E00E94E4076091110465
:10133000613409F062E482E592E00E94FC0485E8F1
:1013400091E00E94E4078AEB91E00E94E40760913B
:101350001E0170911F0190E080E04AE00E94F107B9
:1013600087E292E00E94350881EC91E00E94E40758
:101370006091FF038091FE03681B70E090E080E0C5
:101380004AE00E94F10782ED91E00E94E40760913B
:10139000FF038091FE03681B609570E090E080E0A1
:1013A0004AE00E94F1078BED91E0B6CF81E0611138
:1013B00001C080E08093FA02CCCE611104C08CE0C1
:1013C00080931204E4CE60931204E1CE611104C054
:1013D00088E280931304DBCE60931304D8CED0E070
:1013E000D0933E02C0933D02D2CE81E0611101C094
:1013F00080E080931604CBCE862F6AE00E949E0F79
:101400009F5F892F880F890F8093030187E0989F42
:10141000902D112490930401BACE00E011E06623D0
:10142000A1F0C8010E94880F8F3F39F00F3FF1E013
:101430001F0719F00F5F1F4FF4CF6C2FC801DF910A
:10144000CF911F910F910C94900F6FEFC8010E94E4
:10145000900F0F5F1F4F011582E01807B1F797CE6D
:1014600080E00E941E0475CE1F920F920FB60F925D
:1014700011242F933F938F939F93AF93BF938091AA
:10148000350290913602A0913702B0913802309126
:10149000340223E0230F2D3758F50196A11DB11D0D
:1014A000209334028093350290933602A093370242
:1014B000B09338028091390290913A02A0913B0298
:1014C000B0913C020196A11DB11D80933902909309
:1014D0003A02A0933B02B0933C02BF91AF919F911F
:1014E0008F913F912F910F900FBE0F901F901895E5
:1014F00026E8230F0296A11DB11DD2CF1F920F9295
:101500000FB60F9211242F933F934F935F936F93D6
:101510007F938F939F93AF93BF93EF93FF938091AC
:10152000460290914702A0914802B0914902892B4E
:101530008A2B8B2BD1F190914102E0914202F091E4
:1015400043028081892780838091460290914702DF
:10155000A0914802B0914902181619061A061B06F6
:101560009CF48091460290914702A0914802B0916C
:1015700049020197A109B10980934602909347025D
:10158000A0934802B0934902FF91EF91BF91AF91B0
:101590009F918F917F916F915F914F913F912F918B
:1015A0000F900FBE0F901F90189580911D010E9403
:1015B000F203EACF1F920F920FB60F9211242F93CE
:1015C0003F934F935F936F937F938F939F93AF93CB
:1015D000BF93EF93FF9382E592E00E94DA04FF91BC
:1015E000EF91BF91AF919F918F917F916F915F919B
:1015F0004F913F912F910F900FBE0F901F90189514
:101600001F920F920FB60F9211242F938F939F93D7
:10161000EF93FF93E0916202F09163028081E09189
:101620006802F091690282FD1BC0908180916B027B
:101630008F5F8F7320916C02821741F0E0916B02F3
:10164000F0E0EE5AFD4F958F80936B02FF91EF9182
:101650009F918F912F910F900FBE0F901F90189513
:101660008081F4CF1F920F920FB60F9211242F9307
:101670008F939F938091F60281110EC083B182FFF8
:101680000BC083FB882780F9880F91E0292F281B46
:101690002093F5029093F6029F918F912F910F90D6
:1016A0000FBE0F901F9018951F920F920FB60F92BA
:1016B00011248F939F9380913F02811113C09091C9
:1016C000FF038091FE03981769F081E080933F0249
:1016D0008093010410920004809168008B7F8093B6
:1016E0006800DA9A9F918F910F900FBE0F901F9014
:1016F0001895E7EFF2E012821382158214821682A7
:10170000EEEFF2E082E091E0DF019C011D922150BA
:101710003040E1F70895CF93E2E5F2E013821282C0
:1017200088EE93E0A0E0B0E084839583A683B7833E
:101730008FE691E09183808385EC90E095878487A4
:1017400084EC90E09787868780EC90E0918B808B8B
:1017500081EC90E0938B828B82EC90E0958B848B74
:1017600086EC90E0978B868B118E128E138E148EE2
:10177000EFEEF2E013821482158281E891E091830A
:10178000808316821782C9E1C2830E94790BE0E050
:10179000F4E010821182128210821182E3E0F4E000
:1017A000118210828FEC828381E083832CEB32E004
:1017B000358324833783268325E030E031872087F3
:1017C0002EE130E0338722872AE530E03587248711
:1017D00092E496879AE0978798E2908B818B82E3D8
:1017E000828B138AC48BCF910895789484B58260DC
:1017F00084BD84B5816084BD85B5826085BD85B5B5
:10180000816085BD80916E00816080936E00109232
:1018100081008091810082608093810080918100AD
:10182000816080938100809180008160809380003E
:101830008091B10084608093B1008091B00081609C
:101840008093B00080917A00846080937A008091C8
:101850007A00826080937A0080917A008160809320
:101860007A0080917A00806880937A001092C1009B
:10187000E0916202F091630282E08083E091620273
:10188000F09163021082E0915E02F0915F0210829B
:10189000E0916002F091610280E1808310926A021F
:1018A000E0916602F091670286E08083E091640235
:1018B000F0916502808180618083E0916402F09103
:1018C0006502808188608083E0916402F091650206
:1018D000808180688083E0916402F091650280815C
:1018E0008F7D808385E192E00E94350810921C0173
:1018F00010920A0161E08EE00E94210160E08EE01A
:101900000E94F30062E082E00E94210162E083E035
:101910000E94210161E080E10E94210160E080E1FC
:101920000E94F30061E083E10E94210160E083E115
:101930000E94F30061E08EE00E94F3008FEE92E0DF
:101940000E949A05809113048093F30280911204FF
:101950008093F2021092F4028091F10290E00E94D2
:10196000D6050E94BB0780E092E00E94520164E627
:1019700070E080E090E00E94660380E094E00E94C6
:10198000520164E670E080E090E00E94660383E12B
:101990000E94F20360E08EE00E94F30083E292E096
:1019A0000E94AF07DD24D3940AE010E050E0E52E5A
:1019B00050E0F52ED1E0CC24C394DA9A80913F0216
:1019C000882309F16AE070E080E090E00E946603FD
:1019D00082E00E94CA00892B09F46EC083E00E9455
:1019E000CA00892B09F468C010923F02D093010409
:1019F000809101019091020190931F0180931E013B
:101A000080E00E94490581E00E94F30582E00E9487
:101A1000F3050E942607C1E082E592E00E94BA0425
:101A2000181619060CF061C09091FF038091FE0317
:101A3000292F281B2F3F09F458C0981308C0109273
:101A4000000410920204109201040E948D0082E5AD
:101A500092E00E9498049091FD029923A1F1E091F7
:101A6000F90291E09E0F9093F902F0E0E950FD4FEA
:101A70008083923058F01092F9021092FD0240E0FB
:101A80006091F8028091F7020E944708CC2321F26E
:101A90006CE070E080E090E00E94660380E00E94CD
:101AA00049058091FB029091FC0201969093FC0203
:101AB0008093FB02C0E0B0CF1092FE031092FF03B0
:101AC0000E949A00A0CF8B3129F4C092FD0210929F
:101AD000F902DCCFE091FF0391E09E0F9093FF03AA
:101AE000F0E0E950FD4F8783D1CF0E942607209177
:101AF000FF039091FE032917D1F0E1E0E90FE09395
:101B0000FE03A92FB0E0A950BD4F17968C918032EB
:101B10000CF48EC00E9458079091FF038091FE0341
:101B2000981305C00E949A0080E00E9449050E9417
:101B3000C3038FEE92E00E94B205809100018823DA
:101B400059F08091F402882339F01092F4028091C8
:101B5000F10290E00E94D60580913302882309F4B7
:101B600077C010922F021092300210923102109220
:101B7000320280913302882301F190911C0191116E
:101B8000A8C0823009F0DBC0A12CBB24B394C501EE
:101B90000E94880FE091FF0391E09E0F9093FF0356
:101BA000F0E0E950FD4F87832FEFA21AB20AA1148B
:101BB00082E0B80661F7109233028090060190909F
:101BC0000701A0900801B09009010E949803A501A7
:101BD0009401261B370B480B590BE0910501E130AE
:101BE00009F0CBC00E94980360930601709307012F
:101BF000809308019093090180911C01882309F4C6
:101C000055C180910A01882309F450C18BE091E00D
:101C10000E94350880910B01853409F427C10CF02E
:101C2000FAC09FEB980F923008F40DC1C2E00EC1CC
:101C30002E1759F09E5F9093FE03F0E0E950FD4FA0
:101C400041E067810E94470867CF9093FE0364CF0D
:101C50000E94980380902F0290903002A090310251
:101C6000B0903202681979098A099B096A307105B6
:101C70008105910508F47DCF87E00E94CA0020917C
:101C80002E02222301F1892B09F073CF10922E022C
:101C90000E949803681979098A099B096B3F7105AD
:101CA0008105910570F082E0809333020E949803D1
:101CB00060932F027093300280933102909332022E
:101CC00058CF81E0F1CF892B09F453CFD0932E0266
:101CD000EDCF60E08EE00E94F30010921C01809135
:101CE0001E0190911F01209117042817190611F069
:101CF0008093170480911B0190E090931F018093C3
:101D00001E0110920A0160E08EE00E94F30080E064
:101D100098E00E9452016DE770E080E090E00E9440
:101D2000660380E091E00E9452016DE770E080E080
:101D300090E00E94660383E10E94F2033CCFD093BF
:101D40001C0110920A0180911E0180931B01809159
:101D5000170490E00E94D60561E08EE00E94F30037
:101D600080E091E00E9452016DE770E080E090E039
:101D70000E94660380E098E0D6CFA0911E01B0914A
:101D80001F010E941910603978498440910508F4B8
:101D900033CF8E2F90E0982F882780589F4F9C013B
:101DA00022273E7F232B19F096958795F8CFC82FD1
:101DB000803879F1D09305010E9498036093060161
:101DC000709307018093080190930901EBE2F1E021
:101DD00080E09191C91319C0805E90911C019923F4
:101DE00009F464C0E0910A01EE3040F491E09E0FE6
:101DF00090930A01F0E0E65FFE4F8183E0910A01D3
:101E0000F0E0E65FFE4F1182F7CE8F5F803409F776
:101E1000F3CE80E2E2CF8E3419F1873509F006CF98
:101E200080910A01833008F441C08CE091E00E9467
:101E3000620F9C012B5031092F34310508F0F6CE8A
:101E40008093150402C080931104C1E080E20E94D7
:101E5000580782E5C13009F08FE30E94580724C07B
:101E6000809116048D2580931604EFCFA0901B015E
:101E7000B12C80E20E945807C501B8010E94BE0F34
:101E8000805D80930D01CB01B8010E94BE0F805D83
:101E900080930C0110920E018CE091E00E94AF073C
:101EA00086E292E00E94AF0710920A01E114F10469
:101EB00009F483CD0E94C604882309F47ECD0E94D4
:101EC00000007BCDFC0188279927E89421912032DE
:101ED000E9F3293010F02E30C8F32B3241F02D32C7
:101EE00039F4689404C00E94800F820F911D2191E3
:101EF00020532A30C0F31EF4909581959F4F08958A
:101F00007AE0979F902D879F802D910D1124089541
:101F1000F999FECF92BD81BDF89A992780B50895B1
:101F2000262FF999FECF1FBA92BD81BD20BD0FB6F5
:101F3000F894FA9AF99A0FBE01960895991B79E0E0
:101F400004C0991F961708F0961B881F7A95C9F749
:101F500080950895AA1BBB1B51E107C0AA1FBB1F98
:101F6000A617B70710F0A61BB70B881F991F5A9525
:101F7000A9F780959095BC01CD01089597FB072E98
:101F800016F4009407D077FD09D00E94AA0F07FC31
:101F900005D03EF4909581959F4F08957095619579
:101FA0007F4F0895A1E21A2EAA1BBB1BFD010DC095
:101FB000AA1FBB1FEE1FFF1FA217B307E407F507F9
:101FC00020F0A21BB30BE40BF50B661F771F881FD5
:101FD000991F1A9469F760957095809590959B016B
:101FE000AC01BD01CF010895052E97FB1EF40094AE
:101FF0000E940B1057FD07D00E94D20F07FC03D0A0
:102000004EF40C940B1050954095309521953F4F10
:102010004F4F5F4F089590958095709561957F4FD4
:102020008F4F9F4F0895EE0FFF1F0590F491E02D05
:1020300009940E942410A59F900DB49F900DA49F19
:10204000800D911D11240895A29FB001B39FC0017E
:10205000A39F700D811D1124911DB29F700D811DD4
:0A2060001124911D0895F894FFCF9C
:10206A000119000307010000000000000000000041
:10207A0000000000000000000000001400FF19002A
:10208A00000000000000000001000080CE4C001398
:10209A0000447AB4B68B54CE865694FC7C3C1C0C15
:1020AA000484C4E4F4E2AA548C16326A6088A890C4
:1020BA004028D0082078B048E0A0F068D85010C076
:1020CA0030187098B8C8000000006C00000000FCCE
:1020DA00045C0489047A05BA049804AC040000007C
:1020EA00009A05B2050D0A005370696465722F32B1
:1020FA0000537069646572204368616C6C656E6731
:10210A006572205B00312E322E31005D0049616D0F
:10211A00626963206D6F6465200053706565642091
:10212A000042756666657220636F6E7461696E73CC
:10213A0020002063686172732C2000206279746524
:10214A007320667265652E00537069646572204B50
:10215A0065796572202841726475696E6F204E61D7
:10216A006E6F29206279204F4B31464947205B0028
:10217A00392E3939004368616C6C656E6765722067
:0C218A004857004849002057504D000005
:00000001FF
